{
  "contractName": "UserData",
  "abi": [
    {
      "constant": false,
      "inputs": [
        {
          "name": "dataset",
          "type": "string"
        },
        {
          "name": "ipfsPointer",
          "type": "bytes32"
        }
      ],
      "name": "addDataSet",
      "outputs": [
        {
          "name": "",
          "type": "bool"
        }
      ],
      "payable": false,
      "stateMutability": "nonpayable",
      "type": "function"
    },
    {
      "constant": false,
      "inputs": [],
      "name": "withdraw",
      "outputs": [
        {
          "name": "transferedAmount",
          "type": "uint256"
        }
      ],
      "payable": false,
      "stateMutability": "nonpayable",
      "type": "function"
    },
    {
      "constant": false,
      "inputs": [
        {
          "name": "dataset",
          "type": "string"
        }
      ],
      "name": "transfer",
      "outputs": [
        {
          "name": "pointer",
          "type": "bytes32"
        }
      ],
      "payable": true,
      "stateMutability": "payable",
      "type": "function"
    },
    {
      "inputs": [
        {
          "name": "_userAddress",
          "type": "address"
        }
      ],
      "payable": false,
      "stateMutability": "nonpayable",
      "type": "constructor"
    },
    {
      "payable": true,
      "stateMutability": "payable",
      "type": "fallback"
    },
    {
      "anonymous": false,
      "inputs": [
        {
          "indexed": false,
          "name": "_requester",
          "type": "address"
        },
        {
          "indexed": false,
          "name": "_value",
          "type": "uint256"
        },
        {
          "indexed": false,
          "name": "_dataset",
          "type": "string"
        }
      ],
      "name": "Transfer",
      "type": "event"
    },
    {
      "anonymous": false,
      "inputs": [
        {
          "indexed": false,
          "name": "user",
          "type": "address"
        },
        {
          "indexed": false,
          "name": "amount",
          "type": "uint256"
        }
      ],
      "name": "Withdrawal",
      "type": "event"
    }
  ],
  "bytecode": "0x6060604052341561000f57600080fd5b60405160208061084f83398101604052808051906020019091905050336000806101000a81548173ffffffffffffffffffffffffffffffffffffffff021916908373ffffffffffffffffffffffffffffffffffffffff16021790555080600160006101000a81548173ffffffffffffffffffffffffffffffffffffffff021916908373ffffffffffffffffffffffffffffffffffffffff16021790555050610793806100bc6000396000f300606060405260043610610057576000357c0100000000000000000000000000000000000000000000000000000000900463ffffffff1680630978f6bb1461005c5780633ccfd60b146100de578063a0258d0b14610107575b600080fd5b341561006757600080fd5b6100c4600480803590602001908201803590602001908080601f0160208091040260200160405190810160405280939291908181526020018383808284378201915050505050509190803560001916906020019091905050610175565b604051808215151515815260200191505060405180910390f35b34156100e957600080fd5b6100f16101f1565b6040518082815260200191505060405180910390f35b610157600480803590602001908201803590602001908080601f0160208091040260200160405190810160405280939291908181526020018383808284378201915050505050509190505061037f565b60405180826000191660001916815260200191505060405180910390f35b6000816002846040518082805190602001908083835b6020831015156101b0578051825260208201915060208101905060208303925061018b565b6001836020036101000a0380198251168184511680821785525050505050509050019150509081526020016040518091039020816000191690555092915050565b6000806000600460003373ffffffffffffffffffffffffffffffffffffffff1673ffffffffffffffffffffffffffffffffffffffff168152602001908152602001600020541415610245576000915061037b565b600460003373ffffffffffffffffffffffffffffffffffffffff1673ffffffffffffffffffffffffffffffffffffffff1681526020019081526020016000205490506000600460003373ffffffffffffffffffffffffffffffffffffffff1673ffffffffffffffffffffffffffffffffffffffff168152602001908152602001600020819055503373ffffffffffffffffffffffffffffffffffffffff166108fc829081150290604051600060405180830381858888f19350505050151561030c57600080fd5b7f7fcf532c15f0a6db0bd6d0e038bea71d30d808c7d98cb3bf7268a95bf5081b653382604051808373ffffffffffffffffffffffffffffffffffffffff1673ffffffffffffffffffffffffffffffffffffffff1681526020018281526020019250505060405180910390a18091505b5090565b60006003826040518082805190602001908083835b6020831015156103b95780518252602082019150602081019050602083039250610394565b6001836020036101000a038019825116818451168082178552505050505050905001915050908152602001604051809103902054346003846040518082805190602001908083835b6020831015156104265780518252602082019150602081019050602083039250610401565b6001836020036101000a03801982511681845116808217855250505050505090500191505090815260200160405180910390205401108061052a575060046000600160009054906101000a900473ffffffffffffffffffffffffffffffffffffffff1673ffffffffffffffffffffffffffffffffffffffff1673ffffffffffffffffffffffffffffffffffffffff168152602001908152602001600020543460046000600160009054906101000a900473ffffffffffffffffffffffffffffffffffffffff1673ffffffffffffffffffffffffffffffffffffffff1673ffffffffffffffffffffffffffffffffffffffff1681526020019081526020016000205401105b1561053457600080fd5b346003836040518082805190602001908083835b60208310151561056d5780518252602082019150602081019050602083039250610548565b6001836020036101000a0380198251168184511680821785525050505050509050019150509081526020016040518091039020600082825401925050819055503460046000600160009054906101000a900473ffffffffffffffffffffffffffffffffffffffff1673ffffffffffffffffffffffffffffffffffffffff1673ffffffffffffffffffffffffffffffffffffffff168152602001908152602001600020600082825401925050819055507feb10b79f28ae0b520cb7ee8e40115f547bfac852d7167a55d9ae8e028ee23a11333484604051808473ffffffffffffffffffffffffffffffffffffffff1673ffffffffffffffffffffffffffffffffffffffff16815260200183815260200180602001828103825283818151815260200191508051906020019080838360005b838110156106b857808201518184015260208101905061069d565b50505050905090810190601f1680156106e55780820380516001836020036101000a031916815260200191505b5094505050505060405180910390a16002826040518082805190602001908083835b60208310151561072c5780518252602082019150602081019050602083039250610707565b6001836020036101000a03801982511681845116808217855250505050505090500191505090815260200160405180910390205490509190505600a165627a7a723058200da00d7fa99856f998d63b149ef96e562fc967fa8f0d1b64046502d6939026d20029",
  "source": "pragma solidity ^0.4.15;\n\ncontract UserData {\n\naddress serverAddress;\naddress userAddress;\n\nmapping (string => bytes32) datasets;\nmapping (string => uint256) datasetBalances;\n\nmapping (address => uint256) balances;\n\nmodifier isServer() {\nrequire(msg.sender == serverAddress);\n_;\n}\n\nevent Transfer(\naddress _requester,\nuint256 _value,\nstring _dataset\n);\nevent Withdrawal(address user, uint amount);\n\nfunction UserData(address _userAddress) public {\n\nserverAddress = msg.sender;\nuserAddress = _userAddress;\n\n}\n\nfunction addDataSet(string dataset, bytes32 ipfsPointer)\npublic returns(bool) {\n\ndatasets[dataset] = ipfsPointer;\n}\n\n\nfunction transfer(string dataset) payable public returns (bytes32 pointer) {\n\nif (datasetBalances[dataset] + msg.value < datasetBalances[dataset] || balances[userAddress] + msg.value < balances[userAddress]) {\nrevert();\n}\n\ndatasetBalances[dataset] += msg.value;\nbalances[userAddress] += msg.value;\n\n//rekey encrypted data on ipfs\n\nTransfer(msg.sender, msg.value, dataset);\n\nreturn datasets[dataset];\n}\n\nfunction withdraw()\npublic returns (uint transferedAmount) {\nif (balances[msg.sender] == 0) {\nreturn 0;\n}\n\nuint transferAmount = balances[msg.sender];\nbalances[msg.sender] = 0;\nmsg.sender.transfer(transferAmount);\nWithdrawal(msg.sender, transferAmount);\nreturn transferAmount;\n}\n\n/* Fallback function */\nfunction() payable public {\nrevert();\n}\n\n}",
  "sourcePath": "/home/panda/DataShark/blockchain/contracts/UserData.sol",
  "compiler": {
    "name": "solc",
    "version": "0.4.18+commit.9cf6e910.Emscripten.clang"
  },
  "schemaVersion": "1.0.1",
  "updatedAt": "2017-12-26T07:58:15.162Z"
}